:020000040800F2
:100000006806002089010008890700082107000808
:100010008507000843020008690A00080000000084
:1000200000000000000000000000000019090008A6
:10003000470200080000000011080008050A000837
:10004000A3010008A3010008A3010008A301000800
:10005000A3010008A3010008A30100089102000801
:10006000AD020008CD020008ED020008A30100085F
:10007000A3010008A3010008A3010008A3010008D0
:10008000A3010008A3010008A3010008A3010008C0
:10009000A3010008A3010008A3010008A3010008B0
:1000A000A3010008A3010008A3010008A3010008A0
:1000B000A3010008A3010008A3010008A301000890
:1000C000A3010008A3010008A3010008A301000880
:1000D000A3010008A3010008A3010008A301000870
:1000E000A3010008A3010008A301000800F002F822
:1000F00000F03AF80AA090E8000C82448344AAF188
:100100000107DA4501D100F02FF8AFF2090EBAE885
:100110000F0013F0010F18BFFB1A43F0010318473B
:10012000080A0000280A0000103A24BF78C878C1E5
:10013000FAD8520724BF30C830C144BF04680C60ED
:10014000704700000023002400250026103A28BF35
:1001500078C1FBD8520728BF30C148BF0B60704739
:100160001FB51FBD10B510BD00F031F81146FFF7E7
:10017000F7FF00F07BFC00F04FF803B4FFF7F2FF4D
:1001800003BC00F057F800000948804709480047C1
:10019000FEE7FEE7FEE7FEE7FEE7FEE7FEE7FEE737
:1001A000FEE7FEE704480549054A064B7047000094
:1001B000090A0008ED000008680000206806002019
:1001C000680200206802002070477047704775463B
:1001D00000F02CF8AE4605006946534620F00700B3
:1001E000854618B020B5FFF7DDFFBDE820404FF091
:1001F00000064FF000074FF000084FF0000B21F011
:100200000701AC46ACE8C009ACE8C009ACE8C009DD
:10021000ACE8C0098D46704710B50446AFF30080C6
:100220002046BDE81040FFF7A8BF00000048704717
:100230000400002001491820ABBEFEE726000200A2
:10024000704700BFFEE7704700B5034603E04FF478
:100250007A7000F005F8181EA3F10103F7D100BD74
:1002600000EBC001C9004FF0E02251610021916113
:100270000521116100BF4FF0E021096901F48031CF
:100280000029F8D004214FF0E022116170470000EE
:1002900010B5022000F040F8012801D10249088081
:1002A000022000F033F810BD0000002010B504203B
:1002B00000F032F8012802D102200349088004200E
:1002C00000F024F810BD00000000002010B5082048
:1002D00000F022F8012802D10320034908800820F9
:1002E00000F014F810BD00000000002010B5102030
:1002F00000F012F8012802D10420034908801020E0
:1003000000F004F810BD0000000000200149086062
:100310007047000014040140014600200022074BF2
:100320001B6803EA0102054B14331B680B4013B131
:100330000AB1012000E000207047000000040140E5
:10034000002123498279002A3AD00A4612680368BC
:100350009A430B461A600A1D126803689A430B1DE4
:100360001A60027911440A6803681A430A60184A3D
:100370000832126803689A43154B08331A601A1D35
:10038000126803689A43124B0C331A604279102AA0
:100390000ED11A1F126803681A430D4B08331A60F6
:1003A0001A1D126803681A43094B0C331A600DE0DA
:1003B0000749427911440A6803681A430A6005E054
:1003C000027911440A6803689A430A607047000082
:1003D0000004014010B52021014800F09DF910BD36
:1003E0000008014008B50121042000F013FA102094
:1003F0008DF803002020ADF8000003208DF80200E6
:100400006946024800F0F4F808BD00000008014009
:1004100010B52021014800F081F910BD000801400D
:1004200008B50121042000F0F5F910208DF8030033
:100430008020ADF8000003208DF8020069460448D2
:1004400000F0D6F88021024800F068F908BD0000ED
:100450000008014010B58021054800F05DF9322008
:10046000FFF7F2FE8021024800F058F910BD0000AD
:100470000008014010B580210C4800F04DF93220F1
:10048000FFF7E2FE8021094800F048F93220FFF72B
:10049000DBFE8021054800F03FF93220FFF7D4FE53
:1004A0008021024800F03AF910BD00000008014028
:1004B0002DE9F84F01250020009000F033F9A84203
:1004C00074D10025012482464FF03C0BFFF7C2FF98
:1004D00069E0FFF79DFF01262AE0012722E000F0F6
:1004E00021F9A0420AD10125FFF7C4FFFFF772FFEF
:1004F0004EF667274FF42F76304600900120FFF725
:10050000A3FE00F00FF9A0420AD10125FFF7B2FFC8
:10051000FFF760FF4EF667274FF42F7630460090C6
:10052000781C87B24EF660208742D8DD701C86B2F8
:100530005645D2DDFFF74EFF4FF001080098B0F5A9
:100540002F7F01D141F658382BE04FF0010920E010
:1005500000F0E8F8A04208D10125FFF78BFFFFF774
:1005600039FF4EF6672941F658380120FFF76CFE37
:1005700000F0D8F8A04208D10125FFF77BFFFFF774
:1005800029FF4EF6672941F6583809F101001FFA94
:1005900080F94EF660208145DADD08F101001FFA8E
:1005A00080F8D845D1DD002D93D000BFBDE8F88F8D
:1005B00030B500228B071C0F0F2303FA04F20B4BFC
:1005C0008C1053F824309343084C8D1044F8253098
:1005D00023468C1053F824308C07240F00FA04F4BF
:1005E0002343024C8D1044F8253030BD08000140F3
:1005F0002DE9F041024600250026002000230024BA
:10060000002791F803C00CF00F0591F803C00CF01F
:10061000100CBCF1000F03D091F802C04CEA0505A4
:1006200091F800C0BCF1000F31D0146800202BE01D
:100630004FF0010C0CFA00F3B1F800C00CEA03060D
:100640009E4220D183004FF00F0C0CFA03F7BC43FD
:1006500005FA03FC4CEA040491F803C0BCF1280F2E
:1006600006D14FF0010C0CFA00FCC2F814C00AE0ED
:1006700091F803C0BCF1480F05D14FF0010C0CFA02
:1006800000FCC2F810C0401C0828D1D31460B1F897
:1006900000C0BCF1FF0F34DD546800202EE000F1F3
:1006A000080C4FF0010808FA0CF3B1F800C00CEA8E
:1006B00003069E4221D183004FF00F0C0CFA03F782
:1006C000BC4305FA03FC4CEA040491F803C0BCF1F6
:1006D000280F05D100F1080C08FA0CF8C2F81480B4
:1006E00091F803C0BCF1480F07D100F1080C4FF09E
:1006F000010808FA0CF8C2F81080401C0828CED374
:100700005460BDE8F0810246002093680B400BB1B5
:10071000012000E00020704741617047016170478F
:1007200000BFFEE710B5002440210A48FFF7EBFFA9
:1007300068B91420FFF788FD02E01420FFF784FD5C
:1007400040210448FFF7DFFF0028F6D001242046AF
:1007500010BD00000008014008B50121042000F090
:1007600059F848208DF803004020ADF80000032020
:100770008DF8020069460248FFF73AFF08BD000005
:100780000008014000BFFEE77047000070B500217F
:1007900000230F22C47804B3154C246804F4E064E9
:1007A000C4F5E064210AC1F10403CA40447804FAA4
:1007B00003F184781440214309010E4C0678A155B9
:1007C000047804F01F050124AC4005786D11AD00DC
:1007D00005F1E025C5F8004109E0047804F01F05A3
:1007E0000124AC40044D0678761145F8264070BDD2
:1007F0000CED00E000E400E080E100E0024901438C
:10080000024A1160704700000000FA050CED00E09C
:100810007047000029B1064A92690243044B9A616D
:1008200004E0034A92698243014B9A6170470000D9
:10083000001002401FB501210420FFF7EBFF01214A
:100840000846FFF7E7FF28208DF80F001E20ADF8BF
:100850000C0003208DF80E0003A92E48FFF7C8FEF8
:1008600001210020FFF7A4FE02210020FFF7A0FED7
:1008700003210020FFF79CFE04210020FFF798FED3
:100880001E20019001208DF80A0000208DF808003C
:1008900008208DF8090001A8FFF752FD4FF4A06071
:1008A000FFF7ACFF07208DF8000001208DF8030052
:1008B0008DF8010000208DF802006846FFF766FF02
:1008C00008208DF8000001208DF803008DF801004C
:1008D0008DF802006846FFF759FF09208DF80000E7
:1008E00001208DF803008DF8010002208DF8020030
:1008F0006846FFF74BFF0A208DF8000001208DF8B5
:1009000003008DF8010003208DF802006846FFF710
:100910003DFF1FBD00080140704710B500F002F810
:1009200010BD00000CB50020019000903348006815
:1009300040F480303149086000BF3048006800F45E
:10094000003000900198401C0190009818B901985F
:10095000B0F5A06FF1D12948006800F4003010B163
:100960000120009001E0002000900098012843D170
:100970002348006840F010002149086008460068DC
:1009800020F0030008600846006840F0020008609C
:100990001A48406819494860084640684860084657
:1009A000406840F4806048600846406820F47C104D
:1009B00048600846406840F4E8104860084600680F
:1009C00040F08070086000BF0C48006800F00070C4
:1009D0000028F9D00948406820F003000749486022
:1009E0000846406840F00200486000BF0348406885
:1009F00000F00C000828F9D10CBD000000100240E6
:100A0000002002407047000010B51348006840F015
:100A100001001149086008464068104908400E4925
:100A20004860084600680E4908400B4908600846BF
:100A3000006820F4802008600846406820F4FE002A
:100A400048604FF41F008860FFF767FF4FF00060B9
:100A50000449086010BD0000001002400000FFF8CB
:100A6000FFFFF6FE08ED00E000BFFEE7FFF774FEB3
:100A7000FFF7E0FEFFF7B6FCFFF7D2FC002445E0ED
:100A8000FFF716FD00F046F804B2FFF711FD012C48
:100A900005D0022C03D0032C01D0042C05D1002555
:100AA00000260027A846FFF7B3FCFFF701FD02214F
:100AB0001748FFF728FE00B90125FFF7F9FC0421CC
:100AC0001348FFF720FE00B90226FFF7F1FC0821CA
:100AD0000F48FFF718FE00B90327FFF7E9FC1021C4
:100AE0000B48FFF710FE08B94FF00408FFF7E0FCD1
:100AF000012D09D1022E07D1032F05D1B8F1040F22
:100B000002D10024FFF766FCFFF7D2FCB8E7000033
:100B1000000801400349B1F900000021014A118099
:100B20007047000000000020480B00080000002073
:100B300004000000280100084C0B000804000020FD
:0C0B4000640600004401000800000000F2
:04000005080000ED02
:00000001FF
