:020000040800F2
:100000006806002089010008B107000835070008CC
:10001000AD07000843020008910A00080000000034
:10002000000000000000000000000000410900087E
:100030004702000800000000390800082D0A0008E7
:10004000A3010008A3010008A3010008A301000800
:10005000A3010008A3010008A3010008A9020008E9
:10006000C5020008E502000805030008A301000816
:10007000A3010008A3010008A3010008A3010008D0
:10008000A3010008A3010008A3010008A3010008C0
:10009000A3010008A3010008A3010008A3010008B0
:1000A000A3010008A3010008A3010008A3010008A0
:1000B000A3010008A3010008A3010008A301000890
:1000C000A3010008A3010008A3010008A301000880
:1000D000A3010008A3010008A3010008A301000870
:1000E000A3010008A3010008A301000800F002F822
:1000F00000F03AF80AA090E8000C82448344AAF188
:100100000107DA4501D100F02FF8AFF2090EBAE885
:100110000F0013F0010F18BFFB1A43F0010318473B
:10012000640B0000840B0000103A24BF78C878C12B
:10013000FAD8520724BF30C830C144BF04680C60ED
:10014000704700000023002400250026103A28BF35
:1001500078C1FBD8520728BF30C148BF0B60704739
:100160001FB51FBD10B510BD00F031F81146FFF7E7
:10017000F7FF00F08FFC00F04FF803B4FFF7F2FF39
:1001800003BC00F057F800000948804709480047C1
:10019000FEE7FEE7FEE7FEE7FEE7FEE7FEE7FEE737
:1001A000FEE7FEE704480549054A064B7047000094
:1001B000310A0008ED0000086800002068060020F1
:1001C000680200206802002070477047704775463B
:1001D00000F02CF8AE4605006946534620F00700B3
:1001E000854618B020B5FFF7DDFFBDE820404FF091
:1001F00000064FF000074FF000084FF0000B21F011
:100200000701AC46ACE8C009ACE8C009ACE8C009DD
:10021000ACE8C0098D46704710B50446AFF30080C6
:100220002046BDE81040FFF7A8BF00000048704717
:100230000400002001491820ABBEFEE726000200A2
:10024000704700BFFEE7704700B5034603E04FF478
:100250007A7000F011F8181EA3F10103F7D100BD68
:1002600010B5044603E04FF47A70FFF7EDFF201E4F
:10027000A4F10104F7D110BD00EBC001C9004FF09B
:10028000E0225161002191610521116100BF4FF011
:10029000E021096901F480310029F8D004214FF0F0
:1002A000E02211617047000010B5022000F040F814
:1002B000012801D102490880022000F033F810BD66
:1002C0000000002010B5042000F032F8012802D10F
:1002D000022003490880042000F024F810BD00002B
:1002E0000000002010B5082000F022F8012802D1FB
:1002F000032003490880082000F014F810BD000016
:100300000000002010B5102000F012F8012802D1E2
:10031000042003490880102000F004F810BD0000FC
:1003200000000020014908607047000014040140EB
:10033000014600200022074B1B6803EA0102054B1F
:1003400014331B680B4013B10AB1012000E00020F8
:100350007047000000040140002123498279002AEF
:100360003AD00A46126803689A430B461A600A1D7F
:10037000126803689A430B1D1A60027911440A68D7
:1003800003681A430A60184A0832126803689A43DD
:10039000154B08331A601A1D126803689A43124BF2
:1003A0000C331A604279102A0ED11A1F12680368A2
:1003B0001A430D4B08331A601A1D126803681A435A
:1003C000094B0C331A600DE00749427911440A6861
:1003D00003681A430A6005E0027911440A68036859
:1003E0009A430A60704700000004014010B52021C4
:1003F000014800F09BF910BD0008014008B501213B
:10040000042000F01BFA10208DF803002020ADF826
:10041000000003208DF802006946024800F0F2F85F
:1004200008BD00000008014010B52021014800F07F
:100430007FF910BD0008014008B50121042000F03B
:10044000FDF910208DF803008020ADF80000032096
:100450008DF802006946044800F0D4F88021024873
:1004600000F066F908BD00000008014010B58021C9
:10047000054800F05BF93220FFF7E6FE80210248D4
:1004800000F056F910BD00000008014010B58021B1
:100490000C4800F04BF93220FFF7D6FE80210948C6
:1004A00000F046F93220FFF7CFFE8021054800F02A
:1004B0003DF93220FFF7C8FE8021024800F038F9EC
:1004C00010BD0000000801402DE9F84F012500F0A3
:1004D00033F9A84274D10025012483463C200090C2
:1004E000FFF7C4FF69E0FFF79FFF01264FF0000A06
:1004F00028E0012720E000F01FF9A04209D10125E2
:10050000FFF7C4FFFFF772FF4EF667274FF42F7611
:10051000B2460120FFF798FE00F00EF9A04209D183
:100520000125FFF7B3FFFFF761FF4EF667274FF492
:100530002F76B246781C87B24EF660208742DADD0D
:10054000701C86B25E45D4DDFFF750FF4FF0010806
:10055000BAF52F7F01D141F658382BE04FF0010951
:1005600020E000F0E9F8A04208D10125FFF78EFF56
:10057000FFF73CFF4EF6672941F658380120FFF798
:1005800063FE00F0D9F8A04208D10125FFF77EFFF5
:10059000FFF72CFF4EF6672941F6583809F10100A4
:1005A0001FFA80F94EF660208145DADD08F101007E
:1005B0001FFA80F800988045D0DD002D93D000BF51
:1005C000BDE8F88F30B500228B071C0F0F2303FA0C
:1005D00004F20B4B8C1053F824309343084C8D10CD
:1005E00044F8253023468C1053F824308C07240F10
:1005F00000FA04F42343024C8D1044F8253030BD3A
:10060000080001402DE9F0410246002500260020A7
:1006100000230024002791F803C00CF00F0591F887
:1006200003C00CF0100CBCF1000F03D091F802C015
:100630004CEA050591F800C0BCF1000F31D01468F8
:1006400000202BE04FF0010C0CFA00F3B1F800C0D1
:100650000CEA03069E4220D183004FF00F0C0CFAE7
:1006600003F7BC4305FA03FC4CEA040491F803C009
:10067000BCF1280F06D14FF0010C0CFA00FCC2F8B7
:1006800014C00AE091F803C0BCF1480F05D14FF047
:10069000010C0CFA00FCC2F810C0401C0828D1D391
:1006A0001460B1F800C0BCF1FF0F34DD54680020C5
:1006B0002EE000F1080C4FF0010808FA0CF3B1F835
:1006C00000C00CEA03069E4221D183004FF00F0CBC
:1006D0000CFA03F7BC4305FA03FC4CEA040491F856
:1006E00003C0BCF1280F05D100F1080C08FA0CF882
:1006F000C2F8148091F803C0BCF1480F07D100F193
:10070000080C4FF0010808FA0CF8C2F81080401CE1
:100710000828CED35460BDE8F081024600209368DB
:100720000B400BB1012000E0002070474161704791
:100730000161704700BFFEE710B5002440210F485B
:10074000FFF7EBFFC0B90120FFF78AFD40210B48FE
:10075000FFF7E3FF80B90120FFF782FD4021074842
:10076000FFF7DBFF40B90120FFF77AFD4021034886
:10077000FFF7D3FF00B90124204610BD0008014057
:1007800008B50121042000F059F848208DF8030035
:100790004020ADF8000003208DF8020069460248B1
:1007A000FFF730FF08BD00000008014000BFFEE772
:1007B0007047000070B5002100230F22C47804B3F5
:1007C000154C246804F4E064C4F5E064210AC1F126
:1007D0000403CA40447804FA03F1847814402143A6
:1007E00009010E4C0678A155047804F01F05012478
:1007F000AC4005786D11AD0005F1E025C5F800416C
:1008000009E0047804F01F050124AC40044D06788B
:10081000761145F8264070BD0CED00E000E400E0E4
:1008200080E100E002490143024A11607047000084
:100830000000FA050CED00E07047000029B1064AFF
:1008400092690243044B9A6104E0034A926982432D
:10085000014B9A6170470000001002401FB5012152
:100860000420FFF7EBFF01210846FFF7E7FF2820F0
:100870008DF80F001E20ADF80C0003208DF80E003F
:1008800003A92E48FFF7BEFE01210020FFF79AFEC4
:1008900002210020FFF796FE03210020FFF792FEC1
:1008A00004210020FFF78EFE1E20019001208DF80C
:1008B0000A0000208DF8080008208DF8090001A822
:1008C000FFF74AFD4FF4A060FFF7ACFF07208DF85B
:1008D000000001208DF803008DF8010000208DF844
:1008E00002006846FFF766FF08208DF8000001202F
:1008F0008DF803008DF801008DF802006846FFF7BF
:1009000059FF09208DF8000001208DF803008DF8B3
:10091000010002208DF802006846FFF74BFF0A2015
:100920008DF8000001208DF803008DF801000320F0
:100930008DF802006846FFF73DFF1FBD000801402B
:10094000704710B500F002F810BD00000CB5002093
:10095000019000903348006840F4803031490860CD
:1009600000BF3048006800F4003000900198401C3F
:100970000190009818B90198B0F5A06FF1D12948FD
:10098000006800F4003010B10120009001E0002068
:1009900000900098012843D12348006840F01000DF
:1009A000214908600846006820F0030008600846F6
:1009B000006840F0020008601A4840681949486021
:1009C0000846406848600846406840F480604860D7
:1009D0000846406820F47C1048600846406840F4AF
:1009E000E81048600846006840F08070086000BF6A
:1009F0000C48006800F000700028F9D009484068F1
:100A000020F00300074948600846406840F00200B3
:100A1000486000BF0348406800F00C000828F9D186
:100A20000CBD000000100240002002407047000092
:100A300010B51348006840F00100114908600846ED
:100A40004068104908400E494860084600680E4951
:100A500008400B4908600846006820F480200860C0
:100A60000846406820F4FE0048604FF41F0088608C
:100A7000FFF767FF4FF000600449086010BD0000F9
:100A8000001002400000FFF8FFFFF6FE08ED00E056
:100A900000BFFEE7FFF774FEFFF7E0FEFFF7AEFCD6
:100AA000FFF7CAFC00244FF4FA5ADEE0FFF70CFD12
:100AB00000F0DEF804B2FFF707FD012C05D0022C90
:100AC00003D0032C01D0042C06D100260027B04609
:100AD000B146B346FFF7A8FCFFF7F6FC02216348D6
:100AE000FFF71BFE00B90126FFF7EEFC00F0C0F88F
:100AF00004B2FFF7E9FC012C05D0022C03D0032C33
:100B000001D0042C06D100260027B046B146B346DA
:100B1000FFF78AFCFFF7D8FC04215448FFF7FDFDDE
:100B200000B90227FFF7D0FC00F0A2F804B2FFF7EB
:100B3000CBFC012C05D0022C03D0032C01D0042CBB
:100B400006D100260027B046B146B346FFF76CFC3D
:100B5000FFF7BAFC08214548FFF7DFFD08B94FF061
:100B60000308FFF7B1FC00F083F804B2FFF7ACFC18
:100B7000012C05D0022C03D0032C01D0042C06D16B
:100B800000260027B046B146B346FFF74DFCFFF7FD
:100B90009BFC10213548FFF7C0FD08B94FF0040950
:100BA000FFF792FC00F064F804B2FFF78DFC012C13
:100BB00005D0022C03D0032C01D0042C06D1002632
:100BC0000027B046B146B346FFF72EFCFFF77CFC8A
:100BD000012E48D1022F46D1B8F1030F43D1B9F10C
:100BE000040F40D1002401254FF0010B1DE0FFF759
:100BF0006BFC0120FFF728FBFFF766FC00F038F8DC
:100C000004B2FFF761FC012C05D0022C03D0032CA9
:100C100001D0042C05D100260027B046B146B346CA
:100C200005E0FFF751FC681C85B25545DFDD00BFCC
:100C3000BBF1010F01D1FFF7D9FBFFF745FC00F035
:100C400017F804B2FFF740FC012C05D0022C03D0AA
:100C5000032C01D0042C06D100260027B046B14653
:100C6000B346FFF7E1FBFFF72FFC1FE70008014049
:100C70000349B1F900000021014A118070470000CA
:100C800000000020A40C0008000000200400000068
:100C900028010008A80C00080400002064060000D9
:080CA0004401000800000000FF
:04000005080000ED02
:00000001FF
